{
  "_format": "hh-sol-artifact-1",
  "contractName": "StipendManager",
  "sourceName": "contracts/StipendManager.sol",
  "abi": [
    {
      "inputs": [
        {
          "internalType": "address",
          "name": "_token",
          "type": "address"
        }
      ],
      "stateMutability": "nonpayable",
      "type": "constructor"
    },
    {
      "inputs": [
        {
          "internalType": "address",
          "name": "owner",
          "type": "address"
        }
      ],
      "name": "OwnableInvalidOwner",
      "type": "error"
    },
    {
      "inputs": [
        {
          "internalType": "address",
          "name": "account",
          "type": "address"
        }
      ],
      "name": "OwnableUnauthorizedAccount",
      "type": "error"
    },
    {
      "anonymous": false,
      "inputs": [
        {
          "indexed": true,
          "internalType": "address",
          "name": "previousOwner",
          "type": "address"
        },
        {
          "indexed": true,
          "internalType": "address",
          "name": "newOwner",
          "type": "address"
        }
      ],
      "name": "OwnershipTransferred",
      "type": "event"
    },
    {
      "anonymous": false,
      "inputs": [
        {
          "indexed": true,
          "internalType": "address",
          "name": "student",
          "type": "address"
        },
        {
          "indexed": false,
          "internalType": "uint256",
          "name": "amount",
          "type": "uint256"
        },
        {
          "indexed": false,
          "internalType": "uint256",
          "name": "unlockDate",
          "type": "uint256"
        },
        {
          "indexed": false,
          "internalType": "string",
          "name": "category",
          "type": "string"
        }
      ],
      "name": "StipendAssigned",
      "type": "event"
    },
    {
      "anonymous": false,
      "inputs": [
        {
          "indexed": true,
          "internalType": "address",
          "name": "student",
          "type": "address"
        },
        {
          "indexed": false,
          "internalType": "uint256",
          "name": "amount",
          "type": "uint256"
        }
      ],
      "name": "StipendWithdrawn",
      "type": "event"
    },
    {
      "inputs": [
        {
          "internalType": "address",
          "name": "student",
          "type": "address"
        },
        {
          "internalType": "uint256",
          "name": "amount",
          "type": "uint256"
        },
        {
          "internalType": "uint256",
          "name": "unlockDate",
          "type": "uint256"
        },
        {
          "internalType": "string",
          "name": "category",
          "type": "string"
        }
      ],
      "name": "assignStipend",
      "outputs": [],
      "stateMutability": "nonpayable",
      "type": "function"
    },
    {
      "inputs": [],
      "name": "eduToken",
      "outputs": [
        {
          "internalType": "contract EduToken",
          "name": "",
          "type": "address"
        }
      ],
      "stateMutability": "view",
      "type": "function"
    },
    {
      "inputs": [],
      "name": "getMyStipends",
      "outputs": [
        {
          "components": [
            {
              "internalType": "uint256",
              "name": "amount",
              "type": "uint256"
            },
            {
              "internalType": "uint256",
              "name": "unlockDate",
              "type": "uint256"
            },
            {
              "internalType": "string",
              "name": "category",
              "type": "string"
            },
            {
              "internalType": "bool",
              "name": "withdrawn",
              "type": "bool"
            }
          ],
          "internalType": "struct StipendManager.Stipend[]",
          "name": "",
          "type": "tuple[]"
        }
      ],
      "stateMutability": "view",
      "type": "function"
    },
    {
      "inputs": [],
      "name": "owner",
      "outputs": [
        {
          "internalType": "address",
          "name": "",
          "type": "address"
        }
      ],
      "stateMutability": "view",
      "type": "function"
    },
    {
      "inputs": [],
      "name": "renounceOwnership",
      "outputs": [],
      "stateMutability": "nonpayable",
      "type": "function"
    },
    {
      "inputs": [
        {
          "internalType": "address",
          "name": "",
          "type": "address"
        },
        {
          "internalType": "uint256",
          "name": "",
          "type": "uint256"
        }
      ],
      "name": "stipends",
      "outputs": [
        {
          "internalType": "uint256",
          "name": "amount",
          "type": "uint256"
        },
        {
          "internalType": "uint256",
          "name": "unlockDate",
          "type": "uint256"
        },
        {
          "internalType": "string",
          "name": "category",
          "type": "string"
        },
        {
          "internalType": "bool",
          "name": "withdrawn",
          "type": "bool"
        }
      ],
      "stateMutability": "view",
      "type": "function"
    },
    {
      "inputs": [
        {
          "internalType": "address",
          "name": "newOwner",
          "type": "address"
        }
      ],
      "name": "transferOwnership",
      "outputs": [],
      "stateMutability": "nonpayable",
      "type": "function"
    },
    {
      "inputs": [
        {
          "internalType": "uint256",
          "name": "index",
          "type": "uint256"
        }
      ],
      "name": "withdraw",
      "outputs": [],
      "stateMutability": "nonpayable",
      "type": "function"
    }
  ],
  "bytecode": "0x60806040523480156200001157600080fd5b5060405162001a9c38038062001a9c833981810160405281019062000037919062000235565b33600073ffffffffffffffffffffffffffffffffffffffff168173ffffffffffffffffffffffffffffffffffffffff1603620000ad5760006040517f1e4fbdf7000000000000000000000000000000000000000000000000000000008152600401620000a4919062000278565b60405180910390fd5b620000be816200010760201b60201c565b5080600160006101000a81548173ffffffffffffffffffffffffffffffffffffffff021916908373ffffffffffffffffffffffffffffffffffffffff1602179055505062000295565b60008060009054906101000a900473ffffffffffffffffffffffffffffffffffffffff169050816000806101000a81548173ffffffffffffffffffffffffffffffffffffffff021916908373ffffffffffffffffffffffffffffffffffffffff1602179055508173ffffffffffffffffffffffffffffffffffffffff168173ffffffffffffffffffffffffffffffffffffffff167f8be0079c531659141344cd1fd0a4f28419497f9722a3daafe3b4186f6b6457e060405160405180910390a35050565b600080fd5b600073ffffffffffffffffffffffffffffffffffffffff82169050919050565b6000620001fd82620001d0565b9050919050565b6200020f81620001f0565b81146200021b57600080fd5b50565b6000815190506200022f8162000204565b92915050565b6000602082840312156200024e576200024d620001cb565b5b60006200025e848285016200021e565b91505092915050565b6200027281620001f0565b82525050565b60006020820190506200028f600083018462000267565b92915050565b6117f780620002a56000396000f3fe608060405234801561001057600080fd5b50600436106100885760003560e01c8063715018a61161005b578063715018a6146101165780638d878889146101205780638da5cb5b1461013e578063f2fde38b1461015c57610088565b806303761bcc1461008d5780632e1a7d4d146100c0578063412568d9146100dc5780634f8d5fbb146100f8575b600080fd5b6100a760048036038101906100a29190610bbf565b610178565b6040516100b79493929190610cb9565b60405180910390f35b6100da60048036038101906100d59190610d05565b61025a565b005b6100f660048036038101906100f19190610e67565b6104f2565b005b61010061077e565b60405161010d9190611077565b60405180910390f35b61011e6108db565b005b6101286108ef565b60405161013591906110f8565b60405180910390f35b610146610915565b6040516101539190611122565b60405180910390f35b6101766004803603810190610171919061113d565b61093e565b005b6002602052816000526040600020818154811061019457600080fd5b9060005260206000209060040201600091509150508060000154908060010154908060020180546101c490611199565b80601f01602080910402602001604051908101604052809291908181526020018280546101f090611199565b801561023d5780601f106102125761010080835404028352916020019161023d565b820191906000526020600020905b81548152906001019060200180831161022057829003601f168201915b5050505050908060030160009054906101000a900460ff16905084565b600260003373ffffffffffffffffffffffffffffffffffffffff1673ffffffffffffffffffffffffffffffffffffffff1681526020019081526020016000208054905081106102de576040517f08c379a00000000000000000000000000000000000000000000000000000000081526004016102d590611216565b60405180910390fd5b6000600260003373ffffffffffffffffffffffffffffffffffffffff1673ffffffffffffffffffffffffffffffffffffffff168152602001908152602001600020828154811061033157610330611236565b5b906000526020600020906004020190508060010154421015610388576040517f08c379a000000000000000000000000000000000000000000000000000000000815260040161037f906112b1565b60405180910390fd5b8060030160009054906101000a900460ff16156103da576040517f08c379a00000000000000000000000000000000000000000000000000000000081526004016103d19061131d565b60405180910390fd5b60018160030160006101000a81548160ff021916908315150217905550600160009054906101000a900473ffffffffffffffffffffffffffffffffffffffff1673ffffffffffffffffffffffffffffffffffffffff1663a9059cbb3383600001546040518363ffffffff1660e01b815260040161045892919061133d565b6020604051808303816000875af1158015610477573d6000803e3d6000fd5b505050506040513d601f19601f8201168201806040525081019061049b9190611392565b503373ffffffffffffffffffffffffffffffffffffffff167f2a1c79c7c8f8c5c15e5e14f8df4ecddf9ecca1a9c9254dcbde516ddf62f0f97182600001546040516104e691906113bf565b60405180910390a25050565b6104fa6109c4565b600073ffffffffffffffffffffffffffffffffffffffff168473ffffffffffffffffffffffffffffffffffffffff1603610569576040517f08c379a000000000000000000000000000000000000000000000000000000000815260040161056090611426565b60405180910390fd5b4282116105ab576040517f08c379a00000000000000000000000000000000000000000000000000000000081526004016105a2906114b8565b60405180910390fd5b600160009054906101000a900473ffffffffffffffffffffffffffffffffffffffff1673ffffffffffffffffffffffffffffffffffffffff166323b872dd3330866040518463ffffffff1660e01b815260040161060a939291906114d8565b6020604051808303816000875af1158015610629573d6000803e3d6000fd5b505050506040513d601f19601f8201168201806040525081019061064d9190611392565b50600260008573ffffffffffffffffffffffffffffffffffffffff1673ffffffffffffffffffffffffffffffffffffffff16815260200190815260200160002060405180608001604052808581526020018481526020018381526020016000151581525090806001815401808255809150506001900390600052602060002090600402016000909190919091506000820151816000015560208201518160010155604082015181600201908161070391906116b1565b5060608201518160030160006101000a81548160ff02191690831515021790555050508373ffffffffffffffffffffffffffffffffffffffff167fa05409c2b779343f176fe339d9b72c2dab6c8f1c433cd631666ba2127661e5df84848460405161077093929190611783565b60405180910390a250505050565b6060600260003373ffffffffffffffffffffffffffffffffffffffff1673ffffffffffffffffffffffffffffffffffffffff168152602001908152602001600020805480602002602001604051908101604052809291908181526020016000905b828210156108d25783829060005260206000209060040201604051806080016040529081600082015481526020016001820154815260200160028201805461082690611199565b80601f016020809104026020016040519081016040528092919081815260200182805461085290611199565b801561089f5780601f106108745761010080835404028352916020019161089f565b820191906000526020600020905b81548152906001019060200180831161088257829003601f168201915b505050505081526020016003820160009054906101000a900460ff161515151581525050815260200190600101906107df565b50505050905090565b6108e36109c4565b6108ed6000610a4b565b565b600160009054906101000a900473ffffffffffffffffffffffffffffffffffffffff1681565b60008060009054906101000a900473ffffffffffffffffffffffffffffffffffffffff16905090565b6109466109c4565b600073ffffffffffffffffffffffffffffffffffffffff168173ffffffffffffffffffffffffffffffffffffffff16036109b85760006040517f1e4fbdf70000000000000000000000000000000000000000000000000000000081526004016109af9190611122565b60405180910390fd5b6109c181610a4b565b50565b6109cc610b0f565b73ffffffffffffffffffffffffffffffffffffffff166109ea610915565b73ffffffffffffffffffffffffffffffffffffffff1614610a4957610a0d610b0f565b6040517f118cdaa7000000000000000000000000000000000000000000000000000000008152600401610a409190611122565b60405180910390fd5b565b60008060009054906101000a900473ffffffffffffffffffffffffffffffffffffffff169050816000806101000a81548173ffffffffffffffffffffffffffffffffffffffff021916908373ffffffffffffffffffffffffffffffffffffffff1602179055508173ffffffffffffffffffffffffffffffffffffffff168173ffffffffffffffffffffffffffffffffffffffff167f8be0079c531659141344cd1fd0a4f28419497f9722a3daafe3b4186f6b6457e060405160405180910390a35050565b600033905090565b6000604051905090565b600080fd5b600080fd5b600073ffffffffffffffffffffffffffffffffffffffff82169050919050565b6000610b5682610b2b565b9050919050565b610b6681610b4b565b8114610b7157600080fd5b50565b600081359050610b8381610b5d565b92915050565b6000819050919050565b610b9c81610b89565b8114610ba757600080fd5b50565b600081359050610bb981610b93565b92915050565b60008060408385031215610bd657610bd5610b21565b5b6000610be485828601610b74565b9250506020610bf585828601610baa565b9150509250929050565b610c0881610b89565b82525050565b600081519050919050565b600082825260208201905092915050565b60005b83811015610c48578082015181840152602081019050610c2d565b60008484015250505050565b6000601f19601f8301169050919050565b6000610c7082610c0e565b610c7a8185610c19565b9350610c8a818560208601610c2a565b610c9381610c54565b840191505092915050565b60008115159050919050565b610cb381610c9e565b82525050565b6000608082019050610cce6000830187610bff565b610cdb6020830186610bff565b8181036040830152610ced8185610c65565b9050610cfc6060830184610caa565b95945050505050565b600060208284031215610d1b57610d1a610b21565b5b6000610d2984828501610baa565b91505092915050565b600080fd5b600080fd5b7f4e487b7100000000000000000000000000000000000000000000000000000000600052604160045260246000fd5b610d7482610c54565b810181811067ffffffffffffffff82111715610d9357610d92610d3c565b5b80604052505050565b6000610da6610b17565b9050610db28282610d6b565b919050565b600067ffffffffffffffff821115610dd257610dd1610d3c565b5b610ddb82610c54565b9050602081019050919050565b82818337600083830152505050565b6000610e0a610e0584610db7565b610d9c565b905082815260208101848484011115610e2657610e25610d37565b5b610e31848285610de8565b509392505050565b600082601f830112610e4e57610e4d610d32565b5b8135610e5e848260208601610df7565b91505092915050565b60008060008060808587031215610e8157610e80610b21565b5b6000610e8f87828801610b74565b9450506020610ea087828801610baa565b9350506040610eb187828801610baa565b925050606085013567ffffffffffffffff811115610ed257610ed1610b26565b5b610ede87828801610e39565b91505092959194509250565b600081519050919050565b600082825260208201905092915050565b6000819050602082019050919050565b610f1f81610b89565b82525050565b600082825260208201905092915050565b6000610f4182610c0e565b610f4b8185610f25565b9350610f5b818560208601610c2a565b610f6481610c54565b840191505092915050565b610f7881610c9e565b82525050565b6000608083016000830151610f966000860182610f16565b506020830151610fa96020860182610f16565b5060408301518482036040860152610fc18282610f36565b9150506060830151610fd66060860182610f6f565b508091505092915050565b6000610fed8383610f7e565b905092915050565b6000602082019050919050565b600061100d82610eea565b6110178185610ef5565b93508360208202850161102985610f06565b8060005b8581101561106557848403895281516110468582610fe1565b945061105183610ff5565b925060208a0199505060018101905061102d565b50829750879550505050505092915050565b600060208201905081810360008301526110918184611002565b905092915050565b6000819050919050565b60006110be6110b96110b484610b2b565b611099565b610b2b565b9050919050565b60006110d0826110a3565b9050919050565b60006110e2826110c5565b9050919050565b6110f2816110d7565b82525050565b600060208201905061110d60008301846110e9565b92915050565b61111c81610b4b565b82525050565b60006020820190506111376000830184611113565b92915050565b60006020828403121561115357611152610b21565b5b600061116184828501610b74565b91505092915050565b7f4e487b7100000000000000000000000000000000000000000000000000000000600052602260045260246000fd5b600060028204905060018216806111b157607f821691505b6020821081036111c4576111c361116a565b5b50919050565b7f496e76616c69642073746970656e6420696e6465780000000000000000000000600082015250565b6000611200601583610c19565b915061120b826111ca565b602082019050919050565b6000602082019050818103600083015261122f816111f3565b9050919050565b7f4e487b7100000000000000000000000000000000000000000000000000000000600052603260045260246000fd5b7f4e6f742079657420756e6c6f636b656400000000000000000000000000000000600082015250565b600061129b601083610c19565b91506112a682611265565b602082019050919050565b600060208201905081810360008301526112ca8161128e565b9050919050565b7f416c72656164792077697468647261776e000000000000000000000000000000600082015250565b6000611307601183610c19565b9150611312826112d1565b602082019050919050565b60006020820190508181036000830152611336816112fa565b9050919050565b60006040820190506113526000830185611113565b61135f6020830184610bff565b9392505050565b61136f81610c9e565b811461137a57600080fd5b50565b60008151905061138c81611366565b92915050565b6000602082840312156113a8576113a7610b21565b5b60006113b68482850161137d565b91505092915050565b60006020820190506113d46000830184610bff565b92915050565b7f496e76616c696420616464726573730000000000000000000000000000000000600082015250565b6000611410600f83610c19565b915061141b826113da565b602082019050919050565b6000602082019050818103600083015261143f81611403565b9050919050565b7f556e6c6f636b2064617465206d75737420626520696e2074686520667574757260008201527f6500000000000000000000000000000000000000000000000000000000000000602082015250565b60006114a2602183610c19565b91506114ad82611446565b604082019050919050565b600060208201905081810360008301526114d181611495565b9050919050565b60006060820190506114ed6000830186611113565b6114fa6020830185611113565b6115076040830184610bff565b949350505050565b60008190508160005260206000209050919050565b60006020601f8301049050919050565b600082821b905092915050565b6000600883026115717fffffffffffffffffffffffffffffffffffffffffffffffffffffffffffffffff82611534565b61157b8683611534565b95508019841693508086168417925050509392505050565b60006115ae6115a96115a484610b89565b611099565b610b89565b9050919050565b6000819050919050565b6115c883611593565b6115dc6115d4826115b5565b848454611541565b825550505050565b600090565b6115f16115e4565b6115fc8184846115bf565b505050565b5b81811015611620576116156000826115e9565b600181019050611602565b5050565b601f821115611665576116368161150f565b61163f84611524565b8101602085101561164e578190505b61166261165a85611524565b830182611601565b50505b505050565b600082821c905092915050565b60006116886000198460080261166a565b1980831691505092915050565b60006116a18383611677565b9150826002028217905092915050565b6116ba82610c0e565b67ffffffffffffffff8111156116d3576116d2610d3c565b5b6116dd8254611199565b6116e8828285611624565b600060209050601f83116001811461171b5760008415611709578287015190505b6117138582611695565b86555061177b565b601f1984166117298661150f565b60005b828110156117515784890151825560018201915060208501945060208101905061172c565b8683101561176e578489015161176a601f891682611677565b8355505b6001600288020188555050505b505050505050565b60006060820190506117986000830186610bff565b6117a56020830185610bff565b81810360408301526117b78184610c65565b905094935050505056fea264697066735822122066e68ee95443d34c52ff6e2b375ac0b036dbddefef8c608fc97ff00cda577ad964736f6c63430008150033",
  "linkReferences": {},
  "deployedLinkReferences": {}
}