{
  "_format": "hh-sol-artifact-1",
  "contractName": "StipendManager",
  "sourceName": "contracts/StipendManager.sol",
  "abi": [
    {
      "inputs": [
        {
          "internalType": "address",
          "name": "_token",
          "type": "address"
        }
      ],
      "stateMutability": "nonpayable",
      "type": "constructor"
    },
    {
      "inputs": [
        {
          "internalType": "address",
          "name": "owner",
          "type": "address"
        }
      ],
      "name": "OwnableInvalidOwner",
      "type": "error"
    },
    {
      "inputs": [
        {
          "internalType": "address",
          "name": "account",
          "type": "address"
        }
      ],
      "name": "OwnableUnauthorizedAccount",
      "type": "error"
    },
    {
      "anonymous": false,
      "inputs": [
        {
          "indexed": true,
          "internalType": "address",
          "name": "previousOwner",
          "type": "address"
        },
        {
          "indexed": true,
          "internalType": "address",
          "name": "newOwner",
          "type": "address"
        }
      ],
      "name": "OwnershipTransferred",
      "type": "event"
    },
    {
      "anonymous": false,
      "inputs": [
        {
          "indexed": true,
          "internalType": "address",
          "name": "student",
          "type": "address"
        },
        {
          "indexed": false,
          "internalType": "uint256",
          "name": "amount",
          "type": "uint256"
        },
        {
          "indexed": false,
          "internalType": "uint256",
          "name": "unlockDate",
          "type": "uint256"
        }
      ],
      "name": "StipendAssigned",
      "type": "event"
    },
    {
      "anonymous": false,
      "inputs": [
        {
          "indexed": true,
          "internalType": "address",
          "name": "student",
          "type": "address"
        },
        {
          "indexed": false,
          "internalType": "uint256",
          "name": "amount",
          "type": "uint256"
        }
      ],
      "name": "StipendWithdrawn",
      "type": "event"
    },
    {
      "inputs": [
        {
          "internalType": "address",
          "name": "student",
          "type": "address"
        },
        {
          "internalType": "uint256",
          "name": "amount",
          "type": "uint256"
        },
        {
          "internalType": "uint256",
          "name": "unlockDate",
          "type": "uint256"
        }
      ],
      "name": "assignStipend",
      "outputs": [],
      "stateMutability": "nonpayable",
      "type": "function"
    },
    {
      "inputs": [],
      "name": "eduToken",
      "outputs": [
        {
          "internalType": "contract EduToken",
          "name": "",
          "type": "address"
        }
      ],
      "stateMutability": "view",
      "type": "function"
    },
    {
      "inputs": [],
      "name": "getMyStipends",
      "outputs": [
        {
          "components": [
            {
              "internalType": "uint256",
              "name": "amount",
              "type": "uint256"
            },
            {
              "internalType": "uint256",
              "name": "unlockDate",
              "type": "uint256"
            },
            {
              "internalType": "bool",
              "name": "withdrawn",
              "type": "bool"
            }
          ],
          "internalType": "struct StipendManager.Stipend[]",
          "name": "",
          "type": "tuple[]"
        }
      ],
      "stateMutability": "view",
      "type": "function"
    },
    {
      "inputs": [],
      "name": "owner",
      "outputs": [
        {
          "internalType": "address",
          "name": "",
          "type": "address"
        }
      ],
      "stateMutability": "view",
      "type": "function"
    },
    {
      "inputs": [],
      "name": "renounceOwnership",
      "outputs": [],
      "stateMutability": "nonpayable",
      "type": "function"
    },
    {
      "inputs": [
        {
          "internalType": "address",
          "name": "",
          "type": "address"
        },
        {
          "internalType": "uint256",
          "name": "",
          "type": "uint256"
        }
      ],
      "name": "stipends",
      "outputs": [
        {
          "internalType": "uint256",
          "name": "amount",
          "type": "uint256"
        },
        {
          "internalType": "uint256",
          "name": "unlockDate",
          "type": "uint256"
        },
        {
          "internalType": "bool",
          "name": "withdrawn",
          "type": "bool"
        }
      ],
      "stateMutability": "view",
      "type": "function"
    },
    {
      "inputs": [
        {
          "internalType": "address",
          "name": "newOwner",
          "type": "address"
        }
      ],
      "name": "transferOwnership",
      "outputs": [],
      "stateMutability": "nonpayable",
      "type": "function"
    },
    {
      "inputs": [
        {
          "internalType": "uint256",
          "name": "index",
          "type": "uint256"
        }
      ],
      "name": "withdraw",
      "outputs": [],
      "stateMutability": "nonpayable",
      "type": "function"
    }
  ],
  "bytecode": "0x60806040523480156200001157600080fd5b50604051620013ed380380620013ed833981810160405281019062000037919062000235565b33600073ffffffffffffffffffffffffffffffffffffffff168173ffffffffffffffffffffffffffffffffffffffff1603620000ad5760006040517f1e4fbdf7000000000000000000000000000000000000000000000000000000008152600401620000a4919062000278565b60405180910390fd5b620000be816200010760201b60201c565b5080600160006101000a81548173ffffffffffffffffffffffffffffffffffffffff021916908373ffffffffffffffffffffffffffffffffffffffff1602179055505062000295565b60008060009054906101000a900473ffffffffffffffffffffffffffffffffffffffff169050816000806101000a81548173ffffffffffffffffffffffffffffffffffffffff021916908373ffffffffffffffffffffffffffffffffffffffff1602179055508173ffffffffffffffffffffffffffffffffffffffff168173ffffffffffffffffffffffffffffffffffffffff167f8be0079c531659141344cd1fd0a4f28419497f9722a3daafe3b4186f6b6457e060405160405180910390a35050565b600080fd5b600073ffffffffffffffffffffffffffffffffffffffff82169050919050565b6000620001fd82620001d0565b9050919050565b6200020f81620001f0565b81146200021b57600080fd5b50565b6000815190506200022f8162000204565b92915050565b6000602082840312156200024e576200024d620001cb565b5b60006200025e848285016200021e565b91505092915050565b6200027281620001f0565b82525050565b60006020820190506200028f600083018462000267565b92915050565b61114880620002a56000396000f3fe608060405234801561001057600080fd5b50600436106100885760003560e01c80638d8788891161005b5780638d878889146101035780638da5cb5b14610121578063f2fde38b1461013f578063f35d38581461015b57610088565b806303761bcc1461008d5780632e1a7d4d146100bf5780634f8d5fbb146100db578063715018a6146100f9575b600080fd5b6100a760048036038101906100a29190610a70565b610177565b6040516100b693929190610ada565b60405180910390f35b6100d960048036038101906100d49190610b11565b6101cb565b005b6100e3610463565b6040516100f09190610c4d565b60405180910390f35b61010161052e565b005b61010b610542565b6040516101189190610cce565b60405180910390f35b610129610568565b6040516101369190610cf8565b60405180910390f35b61015960048036038101906101549190610d13565b610591565b005b61017560048036038101906101709190610d40565b610617565b005b6002602052816000526040600020818154811061019357600080fd5b9060005260206000209060030201600091509150508060000154908060010154908060020160009054906101000a900460ff16905083565b600260003373ffffffffffffffffffffffffffffffffffffffff1673ffffffffffffffffffffffffffffffffffffffff16815260200190815260200160002080549050811061024f576040517f08c379a000000000000000000000000000000000000000000000000000000000815260040161024690610df0565b60405180910390fd5b6000600260003373ffffffffffffffffffffffffffffffffffffffff1673ffffffffffffffffffffffffffffffffffffffff16815260200190815260200160002082815481106102a2576102a1610e10565b5b9060005260206000209060030201905080600101544210156102f9576040517f08c379a00000000000000000000000000000000000000000000000000000000081526004016102f090610e8b565b60405180910390fd5b8060020160009054906101000a900460ff161561034b576040517f08c379a000000000000000000000000000000000000000000000000000000000815260040161034290610ef7565b60405180910390fd5b60018160020160006101000a81548160ff021916908315150217905550600160009054906101000a900473ffffffffffffffffffffffffffffffffffffffff1673ffffffffffffffffffffffffffffffffffffffff1663a9059cbb3383600001546040518363ffffffff1660e01b81526004016103c9929190610f17565b6020604051808303816000875af11580156103e8573d6000803e3d6000fd5b505050506040513d601f19601f8201168201806040525081019061040c9190610f6c565b503373ffffffffffffffffffffffffffffffffffffffff167f2a1c79c7c8f8c5c15e5e14f8df4ecddf9ecca1a9c9254dcbde516ddf62f0f97182600001546040516104579190610f99565b60405180910390a25050565b6060600260003373ffffffffffffffffffffffffffffffffffffffff1673ffffffffffffffffffffffffffffffffffffffff168152602001908152602001600020805480602002602001604051908101604052809291908181526020016000905b82821015610525578382906000526020600020906003020160405180606001604052908160008201548152602001600182015481526020016002820160009054906101000a900460ff161515151581525050815260200190600101906104c4565b50505050905090565b610536610884565b610540600061090b565b565b600160009054906101000a900473ffffffffffffffffffffffffffffffffffffffff1681565b60008060009054906101000a900473ffffffffffffffffffffffffffffffffffffffff16905090565b610599610884565b600073ffffffffffffffffffffffffffffffffffffffff168173ffffffffffffffffffffffffffffffffffffffff160361060b5760006040517f1e4fbdf70000000000000000000000000000000000000000000000000000000081526004016106029190610cf8565b60405180910390fd5b6106148161090b565b50565b61061f610884565b600073ffffffffffffffffffffffffffffffffffffffff168373ffffffffffffffffffffffffffffffffffffffff160361068e576040517f08c379a000000000000000000000000000000000000000000000000000000000815260040161068590611000565b60405180910390fd5b4281116106d0576040517f08c379a00000000000000000000000000000000000000000000000000000000081526004016106c790611092565b60405180910390fd5b600160009054906101000a900473ffffffffffffffffffffffffffffffffffffffff1673ffffffffffffffffffffffffffffffffffffffff166323b872dd3330856040518463ffffffff1660e01b815260040161072f939291906110b2565b6020604051808303816000875af115801561074e573d6000803e3d6000fd5b505050506040513d601f19601f820116820180604052508101906107729190610f6c565b50600260008473ffffffffffffffffffffffffffffffffffffffff1673ffffffffffffffffffffffffffffffffffffffff1681526020019081526020016000206040518060600160405280848152602001838152602001600015158152509080600181540180825580915050600190039060005260206000209060030201600090919091909150600082015181600001556020820151816001015560408201518160020160006101000a81548160ff02191690831515021790555050508273ffffffffffffffffffffffffffffffffffffffff167f5c5eafe69c240a7014358d7cf9217db447cd075072183f9f30e9b2a7db04560483836040516108779291906110e9565b60405180910390a2505050565b61088c6109cf565b73ffffffffffffffffffffffffffffffffffffffff166108aa610568565b73ffffffffffffffffffffffffffffffffffffffff1614610909576108cd6109cf565b6040517f118cdaa70000000000000000000000000000000000000000000000000000000081526004016109009190610cf8565b60405180910390fd5b565b60008060009054906101000a900473ffffffffffffffffffffffffffffffffffffffff169050816000806101000a81548173ffffffffffffffffffffffffffffffffffffffff021916908373ffffffffffffffffffffffffffffffffffffffff1602179055508173ffffffffffffffffffffffffffffffffffffffff168173ffffffffffffffffffffffffffffffffffffffff167f8be0079c531659141344cd1fd0a4f28419497f9722a3daafe3b4186f6b6457e060405160405180910390a35050565b600033905090565b600080fd5b600073ffffffffffffffffffffffffffffffffffffffff82169050919050565b6000610a07826109dc565b9050919050565b610a17816109fc565b8114610a2257600080fd5b50565b600081359050610a3481610a0e565b92915050565b6000819050919050565b610a4d81610a3a565b8114610a5857600080fd5b50565b600081359050610a6a81610a44565b92915050565b60008060408385031215610a8757610a866109d7565b5b6000610a9585828601610a25565b9250506020610aa685828601610a5b565b9150509250929050565b610ab981610a3a565b82525050565b60008115159050919050565b610ad481610abf565b82525050565b6000606082019050610aef6000830186610ab0565b610afc6020830185610ab0565b610b096040830184610acb565b949350505050565b600060208284031215610b2757610b266109d7565b5b6000610b3584828501610a5b565b91505092915050565b600081519050919050565b600082825260208201905092915050565b6000819050602082019050919050565b610b7381610a3a565b82525050565b610b8281610abf565b82525050565b606082016000820151610b9e6000850182610b6a565b506020820151610bb16020850182610b6a565b506040820151610bc46040850182610b79565b50505050565b6000610bd68383610b88565b60608301905092915050565b6000602082019050919050565b6000610bfa82610b3e565b610c048185610b49565b9350610c0f83610b5a565b8060005b83811015610c40578151610c278882610bca565b9750610c3283610be2565b925050600181019050610c13565b5085935050505092915050565b60006020820190508181036000830152610c678184610bef565b905092915050565b6000819050919050565b6000610c94610c8f610c8a846109dc565b610c6f565b6109dc565b9050919050565b6000610ca682610c79565b9050919050565b6000610cb882610c9b565b9050919050565b610cc881610cad565b82525050565b6000602082019050610ce36000830184610cbf565b92915050565b610cf2816109fc565b82525050565b6000602082019050610d0d6000830184610ce9565b92915050565b600060208284031215610d2957610d286109d7565b5b6000610d3784828501610a25565b91505092915050565b600080600060608486031215610d5957610d586109d7565b5b6000610d6786828701610a25565b9350506020610d7886828701610a5b565b9250506040610d8986828701610a5b565b9150509250925092565b600082825260208201905092915050565b7f496e76616c69642073746970656e6420696e6465780000000000000000000000600082015250565b6000610dda601583610d93565b9150610de582610da4565b602082019050919050565b60006020820190508181036000830152610e0981610dcd565b9050919050565b7f4e487b7100000000000000000000000000000000000000000000000000000000600052603260045260246000fd5b7f4e6f742079657420756e6c6f636b656400000000000000000000000000000000600082015250565b6000610e75601083610d93565b9150610e8082610e3f565b602082019050919050565b60006020820190508181036000830152610ea481610e68565b9050919050565b7f416c72656164792077697468647261776e000000000000000000000000000000600082015250565b6000610ee1601183610d93565b9150610eec82610eab565b602082019050919050565b60006020820190508181036000830152610f1081610ed4565b9050919050565b6000604082019050610f2c6000830185610ce9565b610f396020830184610ab0565b9392505050565b610f4981610abf565b8114610f5457600080fd5b50565b600081519050610f6681610f40565b92915050565b600060208284031215610f8257610f816109d7565b5b6000610f9084828501610f57565b91505092915050565b6000602082019050610fae6000830184610ab0565b92915050565b7f496e76616c696420616464726573730000000000000000000000000000000000600082015250565b6000610fea600f83610d93565b9150610ff582610fb4565b602082019050919050565b6000602082019050818103600083015261101981610fdd565b9050919050565b7f556e6c6f636b2064617465206d75737420626520696e2074686520667574757260008201527f6500000000000000000000000000000000000000000000000000000000000000602082015250565b600061107c602183610d93565b915061108782611020565b604082019050919050565b600060208201905081810360008301526110ab8161106f565b9050919050565b60006060820190506110c76000830186610ce9565b6110d46020830185610ce9565b6110e16040830184610ab0565b949350505050565b60006040820190506110fe6000830185610ab0565b61110b6020830184610ab0565b939250505056fea26469706673582212205db49f849eb0ff8aa73fb15e34812556510bca819738c82b2d7362d34d136aff64736f6c63430008150033",
  "linkReferences": {},
  "deployedLinkReferences": {}
}